{
  "transactions": [
    {
      "hash": "0xf1def5da161d7ced633610be231dd571276734ca24ee46531bdccf25744748cd",
      "transactionType": "CALL",
      "contractName": null,
      "contractAddress": "0xb78621c60589d583ce96a7a9f5226280a884a818",
      "function": "mintNft(string)",
      "arguments": [
        "ipfs://bafybeig37ioir76s7mg5oobetncojcm3c3hxasyd4rvid4jqhy4gkaheg4/?filename=0-PUG.json"
      ],
      "transaction": {
        "from": "0x887a853c5c71ede91a0a56119a044218fb7a0369",
        "to": "0xb78621c60589d583ce96a7a9f5226280a884a818",
        "gas": "0x40fc0",
        "value": "0x0",
        "input": "0xda86f4a900000000000000000000000000000000000000000000000000000000000000200000000000000000000000000000000000000000000000000000000000000057697066733a2f2f62616679626569673337696f6972373673376d67356f6f6265746e636f6a636d3363336878617379643472766964346a71687934676b61686567342f3f66696c656e616d653d302d5055472e6a736f6e000000000000000000",
        "nonce": "0x8",
        "chainId": "0xaa36a7"
      },
      "additionalContracts": [],
      "isFixedGasLimit": false
    }
  ],
  "receipts": [
    {
      "status": "0x1",
      "cumulativeGasUsed": "0x72bfab",
      "logs": [
        {
          "address": "0xb78621c60589d583ce96a7a9f5226280a884a818",
          "topics": [
            "0xddf252ad1be2c89b69c2b068fc378daa952ba7f163c4a11628f55a4df523b3ef",
            "0x0000000000000000000000000000000000000000000000000000000000000000",
            "0x000000000000000000000000887a853c5c71ede91a0a56119a044218fb7a0369",
            "0x0000000000000000000000000000000000000000000000000000000000000000"
          ],
          "data": "0x",
          "blockHash": "0x2d20f072ac640e1f2cefd23ca540e52025fcac36ac4cac137d4da59a429aaed2",
          "blockNumber": "0x6fce5e",
          "transactionHash": "0xf1def5da161d7ced633610be231dd571276734ca24ee46531bdccf25744748cd",
          "transactionIndex": "0x4f",
          "logIndex": "0x6f",
          "removed": false
        }
      ],
      "logsBloom": "0x00000000000100000000000000000000000000000000000000000000000000000000000000000000000000000000000000000000000000010000000000100000000000000000000000000008000000000000000000000000000000000000000000000000020000000000000000000800000000000000000000000010000000000000000000000010000000000000000000000000000000000000000000000000000000000000000000000000000000000000000000000000000000000000000000000002000000000100000000000000400000000000000000000000000020000000000000000000000000000000000000000000000000000000000000000000",
      "type": "0x2",
      "transactionHash": "0xf1def5da161d7ced633610be231dd571276734ca24ee46531bdccf25744748cd",
      "transactionIndex": "0x4f",
      "blockHash": "0x2d20f072ac640e1f2cefd23ca540e52025fcac36ac4cac137d4da59a429aaed2",
      "blockNumber": "0x6fce5e",
      "gasUsed": "0x2c6f1",
      "effectiveGasPrice": "0xa1588763",
      "from": "0x887a853c5c71ede91a0a56119a044218fb7a0369",
      "to": "0xb78621c60589d583ce96a7a9f5226280a884a818",
      "contractAddress": null
    }
  ],
  "libraries": [],
  "pending": [],
  "returns": {},
  "timestamp": 1734816841,
  "chain": 11155111,
  "commit": "872f9a7"
}